{
  "address": "0x106EC960Ac8DbF757e5a06cA842b82434E6C8A61",
  "abi": [
    {
      "inputs": [],
      "stateMutability": "nonpayable",
      "type": "constructor"
    },
    {
      "anonymous": false,
      "inputs": [
        {
          "indexed": true,
          "internalType": "address",
          "name": "owner",
          "type": "address"
        },
        {
          "indexed": true,
          "internalType": "address",
          "name": "approved",
          "type": "address"
        },
        {
          "indexed": true,
          "internalType": "uint256",
          "name": "tokenId",
          "type": "uint256"
        }
      ],
      "name": "Approval",
      "type": "event"
    },
    {
      "anonymous": false,
      "inputs": [
        {
          "indexed": true,
          "internalType": "address",
          "name": "owner",
          "type": "address"
        },
        {
          "indexed": true,
          "internalType": "address",
          "name": "operator",
          "type": "address"
        },
        {
          "indexed": false,
          "internalType": "bool",
          "name": "approved",
          "type": "bool"
        }
      ],
      "name": "ApprovalForAll",
      "type": "event"
    },
    {
      "anonymous": false,
      "inputs": [
        {
          "indexed": true,
          "internalType": "address",
          "name": "from",
          "type": "address"
        },
        {
          "indexed": true,
          "internalType": "address",
          "name": "to",
          "type": "address"
        },
        {
          "indexed": true,
          "internalType": "uint256",
          "name": "tokenId",
          "type": "uint256"
        }
      ],
      "name": "Transfer",
      "type": "event"
    },
    {
      "inputs": [
        {
          "internalType": "address",
          "name": "to",
          "type": "address"
        },
        {
          "internalType": "uint256",
          "name": "tokenId",
          "type": "uint256"
        }
      ],
      "name": "approve",
      "outputs": [],
      "stateMutability": "nonpayable",
      "type": "function"
    },
    {
      "inputs": [
        {
          "internalType": "address",
          "name": "owner",
          "type": "address"
        }
      ],
      "name": "balanceOf",
      "outputs": [
        {
          "internalType": "uint256",
          "name": "",
          "type": "uint256"
        }
      ],
      "stateMutability": "view",
      "type": "function"
    },
    {
      "inputs": [
        {
          "internalType": "uint256",
          "name": "tokenId",
          "type": "uint256"
        }
      ],
      "name": "getApproved",
      "outputs": [
        {
          "internalType": "address",
          "name": "",
          "type": "address"
        }
      ],
      "stateMutability": "view",
      "type": "function"
    },
    {
      "inputs": [
        {
          "internalType": "address",
          "name": "owner",
          "type": "address"
        },
        {
          "internalType": "address",
          "name": "operator",
          "type": "address"
        }
      ],
      "name": "isApprovedForAll",
      "outputs": [
        {
          "internalType": "bool",
          "name": "",
          "type": "bool"
        }
      ],
      "stateMutability": "view",
      "type": "function"
    },
    {
      "inputs": [],
      "name": "name",
      "outputs": [
        {
          "internalType": "string",
          "name": "",
          "type": "string"
        }
      ],
      "stateMutability": "view",
      "type": "function"
    },
    {
      "inputs": [
        {
          "internalType": "uint256",
          "name": "tokenId",
          "type": "uint256"
        }
      ],
      "name": "ownerOf",
      "outputs": [
        {
          "internalType": "address",
          "name": "",
          "type": "address"
        }
      ],
      "stateMutability": "view",
      "type": "function"
    },
    {
      "inputs": [
        {
          "internalType": "string",
          "name": "_tokenURI",
          "type": "string"
        }
      ],
      "name": "safeMint",
      "outputs": [],
      "stateMutability": "nonpayable",
      "type": "function"
    },
    {
      "inputs": [
        {
          "internalType": "address",
          "name": "from",
          "type": "address"
        },
        {
          "internalType": "address",
          "name": "to",
          "type": "address"
        },
        {
          "internalType": "uint256",
          "name": "tokenId",
          "type": "uint256"
        }
      ],
      "name": "safeTransferFrom",
      "outputs": [],
      "stateMutability": "nonpayable",
      "type": "function"
    },
    {
      "inputs": [
        {
          "internalType": "address",
          "name": "from",
          "type": "address"
        },
        {
          "internalType": "address",
          "name": "to",
          "type": "address"
        },
        {
          "internalType": "uint256",
          "name": "tokenId",
          "type": "uint256"
        },
        {
          "internalType": "bytes",
          "name": "_data",
          "type": "bytes"
        }
      ],
      "name": "safeTransferFrom",
      "outputs": [],
      "stateMutability": "nonpayable",
      "type": "function"
    },
    {
      "inputs": [
        {
          "internalType": "address",
          "name": "operator",
          "type": "address"
        },
        {
          "internalType": "bool",
          "name": "approved",
          "type": "bool"
        }
      ],
      "name": "setApprovalForAll",
      "outputs": [],
      "stateMutability": "nonpayable",
      "type": "function"
    },
    {
      "inputs": [
        {
          "internalType": "bytes4",
          "name": "interfaceId",
          "type": "bytes4"
        }
      ],
      "name": "supportsInterface",
      "outputs": [
        {
          "internalType": "bool",
          "name": "",
          "type": "bool"
        }
      ],
      "stateMutability": "view",
      "type": "function"
    },
    {
      "inputs": [],
      "name": "symbol",
      "outputs": [
        {
          "internalType": "string",
          "name": "",
          "type": "string"
        }
      ],
      "stateMutability": "view",
      "type": "function"
    },
    {
      "inputs": [
        {
          "internalType": "uint256",
          "name": "index",
          "type": "uint256"
        }
      ],
      "name": "tokenByIndex",
      "outputs": [
        {
          "internalType": "uint256",
          "name": "",
          "type": "uint256"
        }
      ],
      "stateMutability": "view",
      "type": "function"
    },
    {
      "inputs": [
        {
          "internalType": "address",
          "name": "owner",
          "type": "address"
        },
        {
          "internalType": "uint256",
          "name": "index",
          "type": "uint256"
        }
      ],
      "name": "tokenOfOwnerByIndex",
      "outputs": [
        {
          "internalType": "uint256",
          "name": "",
          "type": "uint256"
        }
      ],
      "stateMutability": "view",
      "type": "function"
    },
    {
      "inputs": [
        {
          "internalType": "uint256",
          "name": "tokenId",
          "type": "uint256"
        }
      ],
      "name": "tokenURI",
      "outputs": [
        {
          "internalType": "string",
          "name": "",
          "type": "string"
        }
      ],
      "stateMutability": "view",
      "type": "function"
    },
    {
      "inputs": [
        {
          "internalType": "uint256",
          "name": "",
          "type": "uint256"
        }
      ],
      "name": "tokenURIs",
      "outputs": [
        {
          "internalType": "string",
          "name": "",
          "type": "string"
        }
      ],
      "stateMutability": "view",
      "type": "function"
    },
    {
      "inputs": [],
      "name": "totalSupply",
      "outputs": [
        {
          "internalType": "uint256",
          "name": "",
          "type": "uint256"
        }
      ],
      "stateMutability": "view",
      "type": "function"
    },
    {
      "inputs": [
        {
          "internalType": "address",
          "name": "from",
          "type": "address"
        },
        {
          "internalType": "address",
          "name": "to",
          "type": "address"
        },
        {
          "internalType": "uint256",
          "name": "tokenId",
          "type": "uint256"
        }
      ],
      "name": "transferFrom",
      "outputs": [],
      "stateMutability": "nonpayable",
      "type": "function"
    }
  ],
  "transactionHash": "0x04a288fe9e8455f09bdc2a19effe06ce1812f2dc31a1fdd15cbcfb11378733df",
  "args": [],
  "numDeployments": 3,
  "solcInputHash": "7539782e7437538d28f53658832d7c6c",
  "bytecode": "0x60806040523480156200001157600080fd5b506040518060400160405280601181526020017f4d794e66744320436f6c6c656374696f6e0000000000000000000000000000008152506040518060400160405280600681526020017f4d794e6674430000000000000000000000000000000000000000000000000000815250816000908051906020019062000096929190620000b8565b508060019080519060200190620000af929190620000b8565b505050620001cd565b828054620000c69062000168565b90600052602060002090601f016020900481019282620000ea576000855562000136565b82601f106200010557805160ff191683800117855562000136565b8280016001018555821562000136579182015b828111156200013557825182559160200191906001019062000118565b5b50905062000145919062000149565b5090565b5b80821115620001645760008160009055506001016200014a565b5090565b600060028204905060018216806200018157607f821691505b602082108114156200019857620001976200019e565b5b50919050565b7f4e487b7100000000000000000000000000000000000000000000000000000000600052602260045260246000fd5b6130e780620001dd6000396000f3fe608060405234801561001057600080fd5b50600436106101165760003560e01c80636352211e116100a257806395d89b411161007157806395d89b4114610317578063a22cb46514610335578063b88d4fde14610351578063c87b56dd1461036d578063e985e9c51461039d57610116565b80636352211e1461026b578063695850fb1461029b5780636c8b703f146102b757806370a08231146102e757610116565b806318160ddd116100e957806318160ddd146101b557806323b872dd146101d35780632f745c59146101ef57806342842e0e1461021f5780634f6ccce71461023b57610116565b806301ffc9a71461011b57806306fdde031461014b578063081812fc14610169578063095ea7b314610199575b600080fd5b610135600480360381019061013091906121ce565b6103cd565b604051610142919061262b565b60405180910390f35b6101536103df565b6040516101609190612646565b60405180910390f35b610183600480360381019061017e9190612261565b610471565b60405161019091906125c4565b60405180910390f35b6101b360048036038101906101ae9190612192565b6104f6565b005b6101bd61060e565b6040516101ca9190612888565b60405180910390f35b6101ed60048036038101906101e8919061208c565b61061b565b005b61020960048036038101906102049190612192565b61067b565b6040516102169190612888565b60405180910390f35b6102396004803603810190610234919061208c565b610720565b005b61025560048036038101906102509190612261565b610740565b6040516102629190612888565b60405180910390f35b61028560048036038101906102809190612261565b6107d7565b60405161029291906125c4565b60405180910390f35b6102b560048036038101906102b09190612220565b610889565b005b6102d160048036038101906102cc9190612261565b6109a8565b6040516102de9190612646565b60405180910390f35b61030160048036038101906102fc9190612027565b610a54565b60405161030e9190612888565b60405180910390f35b61031f610b0c565b60405161032c9190612646565b60405180910390f35b61034f600480360381019061034a9190612156565b610b9e565b005b61036b600480360381019061036691906120db565b610bb4565b005b61038760048036038101906103829190612261565b610c16565b6040516103949190612646565b60405180910390f35b6103b760048036038101906103b29190612050565b610d03565b6040516103c4919061262b565b60405180910390f35b60006103d882610d97565b9050919050565b6060600080546103ee90612aad565b80601f016020809104026020016040519081016040528092919081815260200182805461041a90612aad565b80156104675780601f1061043c57610100808354040283529160200191610467565b820191906000526020600020905b81548152906001019060200180831161044a57829003601f168201915b5050505050905090565b600061047c82610e11565b6104bb576040517f08c379a00000000000000000000000000000000000000000000000000000000081526004016104b2906127e8565b60405180910390fd5b6004600083815260200190815260200160002060009054906101000a900473ffffffffffffffffffffffffffffffffffffffff169050919050565b6000610501826107d7565b90508073ffffffffffffffffffffffffffffffffffffffff168373ffffffffffffffffffffffffffffffffffffffff161415610572576040517f08c379a000000000000000000000000000000000000000000000000000000000815260040161056990612828565b60405180910390fd5b8073ffffffffffffffffffffffffffffffffffffffff16610591610e7d565b73ffffffffffffffffffffffffffffffffffffffff1614806105c057506105bf816105ba610e7d565b610d03565b5b6105ff576040517f08c379a00000000000000000000000000000000000000000000000000000000081526004016105f690612768565b60405180910390fd5b6106098383610e85565b505050565b6000600880549050905090565b61062c610626610e7d565b82610f3e565b61066b576040517f08c379a000000000000000000000000000000000000000000000000000000000815260040161066290612848565b60405180910390fd5b61067683838361101c565b505050565b600061068683610a54565b82106106c7576040517f08c379a00000000000000000000000000000000000000000000000000000000081526004016106be90612668565b60405180910390fd5b600660008473ffffffffffffffffffffffffffffffffffffffff1673ffffffffffffffffffffffffffffffffffffffff168152602001908152602001600020600083815260200190815260200160002054905092915050565b61073b83838360405180602001604052806000815250610bb4565b505050565b600061074a61060e565b821061078b576040517f08c379a000000000000000000000000000000000000000000000000000000000815260040161078290612868565b60405180910390fd5b600882815481106107c5577f4e487b7100000000000000000000000000000000000000000000000000000000600052603260045260246000fd5b90600052602060002001549050919050565b6000806002600084815260200190815260200160002060009054906101000a900473ffffffffffffffffffffffffffffffffffffffff169050600073ffffffffffffffffffffffffffffffffffffffff168173ffffffffffffffffffffffffffffffffffffffff161415610880576040517f08c379a0000000000000000000000000000000000000000000000000000000008152600401610877906127a8565b60405180910390fd5b80915050919050565b600b8160405161089991906125ad565b908152602001604051809103902060009054906101000a900460ff16156108f5576040517f08c379a00000000000000000000000000000000000000000000000000000000081526004016108ec90612748565b60405180910390fd5b600a81908060018154018082558091505060019003906000526020600020016000909190919091509080519060200190610930929190611e4b565b506000600a80549050905081600c60008381526020019081526020016000209080519060200190610962929190611e4b565b506001600b8360405161097591906125ad565b908152602001604051809103902060006101000a81548160ff0219169083151502179055506109a43382611283565b5050565b600a81815481106109b857600080fd5b9060005260206000200160009150905080546109d390612aad565b80601f01602080910402602001604051908101604052809291908181526020018280546109ff90612aad565b8015610a4c5780601f10610a2157610100808354040283529160200191610a4c565b820191906000526020600020905b815481529060010190602001808311610a2f57829003601f168201915b505050505081565b60008073ffffffffffffffffffffffffffffffffffffffff168273ffffffffffffffffffffffffffffffffffffffff161415610ac5576040517f08c379a0000000000000000000000000000000000000000000000000000000008152600401610abc90612788565b60405180910390fd5b600360008373ffffffffffffffffffffffffffffffffffffffff1673ffffffffffffffffffffffffffffffffffffffff168152602001908152602001600020549050919050565b606060018054610b1b90612aad565b80601f0160208091040260200160405190810160405280929190818152602001828054610b4790612aad565b8015610b945780601f10610b6957610100808354040283529160200191610b94565b820191906000526020600020905b815481529060010190602001808311610b7757829003601f168201915b5050505050905090565b610bb0610ba9610e7d565b83836112a1565b5050565b610bc5610bbf610e7d565b83610f3e565b610c04576040517f08c379a0000000000000000000000000000000000000000000000000000000008152600401610bfb90612848565b60405180910390fd5b610c108484848461140e565b50505050565b6060610c2182610e11565b610c60576040517f08c379a0000000000000000000000000000000000000000000000000000000008152600401610c5790612808565b60405180910390fd5b600c60008381526020019081526020016000208054610c7e90612aad565b80601f0160208091040260200160405190810160405280929190818152602001828054610caa90612aad565b8015610cf75780601f10610ccc57610100808354040283529160200191610cf7565b820191906000526020600020905b815481529060010190602001808311610cda57829003601f168201915b50505050509050919050565b6000600560008473ffffffffffffffffffffffffffffffffffffffff1673ffffffffffffffffffffffffffffffffffffffff16815260200190815260200160002060008373ffffffffffffffffffffffffffffffffffffffff1673ffffffffffffffffffffffffffffffffffffffff16815260200190815260200160002060009054906101000a900460ff16905092915050565b60007f780e9d63000000000000000000000000000000000000000000000000000000007bffffffffffffffffffffffffffffffffffffffffffffffffffffffff1916827bffffffffffffffffffffffffffffffffffffffffffffffffffffffff19161480610e0a5750610e098261146a565b5b9050919050565b60008073ffffffffffffffffffffffffffffffffffffffff166002600084815260200190815260200160002060009054906101000a900473ffffffffffffffffffffffffffffffffffffffff1673ffffffffffffffffffffffffffffffffffffffff1614159050919050565b600033905090565b816004600083815260200190815260200160002060006101000a81548173ffffffffffffffffffffffffffffffffffffffff021916908373ffffffffffffffffffffffffffffffffffffffff160217905550808273ffffffffffffffffffffffffffffffffffffffff16610ef8836107d7565b73ffffffffffffffffffffffffffffffffffffffff167f8c5be1e5ebec7d5bd14f71427d1e84f3dd0314c0f7b2291e5b200ac8c7c3b92560405160405180910390a45050565b6000610f4982610e11565b610f88576040517f08c379a0000000000000000000000000000000000000000000000000000000008152600401610f7f90612728565b60405180910390fd5b6000610f93836107d7565b90508073ffffffffffffffffffffffffffffffffffffffff168473ffffffffffffffffffffffffffffffffffffffff16148061100257508373ffffffffffffffffffffffffffffffffffffffff16610fea84610471565b73ffffffffffffffffffffffffffffffffffffffff16145b8061101357506110128185610d03565b5b91505092915050565b8273ffffffffffffffffffffffffffffffffffffffff1661103c826107d7565b73ffffffffffffffffffffffffffffffffffffffff1614611092576040517f08c379a0000000000000000000000000000000000000000000000000000000008152600401611089906126a8565b60405180910390fd5b600073ffffffffffffffffffffffffffffffffffffffff168273ffffffffffffffffffffffffffffffffffffffff161415611102576040517f08c379a00000000000000000000000000000000000000000000000000000000081526004016110f9906126e8565b60405180910390fd5b61110d83838361154c565b611118600082610e85565b6001600360008573ffffffffffffffffffffffffffffffffffffffff1673ffffffffffffffffffffffffffffffffffffffff168152602001908152602001600020600082825461116891906129c3565b925050819055506001600360008473ffffffffffffffffffffffffffffffffffffffff1673ffffffffffffffffffffffffffffffffffffffff16815260200190815260200160002060008282546111bf919061296d565b92505081905550816002600083815260200190815260200160002060006101000a81548173ffffffffffffffffffffffffffffffffffffffff021916908373ffffffffffffffffffffffffffffffffffffffff160217905550808273ffffffffffffffffffffffffffffffffffffffff168473ffffffffffffffffffffffffffffffffffffffff167fddf252ad1be2c89b69c2b068fc378daa952ba7f163c4a11628f55a4df523b3ef60405160405180910390a461127e83838361155c565b505050565b61129d828260405180602001604052806000815250611561565b5050565b8173ffffffffffffffffffffffffffffffffffffffff168373ffffffffffffffffffffffffffffffffffffffff161415611310576040517f08c379a000000000000000000000000000000000000000000000000000000000815260040161130790612708565b60405180910390fd5b80600560008573ffffffffffffffffffffffffffffffffffffffff1673ffffffffffffffffffffffffffffffffffffffff16815260200190815260200160002060008473ffffffffffffffffffffffffffffffffffffffff1673ffffffffffffffffffffffffffffffffffffffff16815260200190815260200160002060006101000a81548160ff0219169083151502179055508173ffffffffffffffffffffffffffffffffffffffff168373ffffffffffffffffffffffffffffffffffffffff167f17307eab39ab6107e8899845ad3d59bd9653f200f220920489ca2b5937696c3183604051611401919061262b565b60405180910390a3505050565b61141984848461101c565b611425848484846115bc565b611464576040517f08c379a000000000000000000000000000000000000000000000000000000000815260040161145b90612688565b60405180910390fd5b50505050565b60007f80ac58cd000000000000000000000000000000000000000000000000000000007bffffffffffffffffffffffffffffffffffffffffffffffffffffffff1916827bffffffffffffffffffffffffffffffffffffffffffffffffffffffff1916148061153557507f5b5e139f000000000000000000000000000000000000000000000000000000007bffffffffffffffffffffffffffffffffffffffffffffffffffffffff1916827bffffffffffffffffffffffffffffffffffffffffffffffffffffffff1916145b80611545575061154482611753565b5b9050919050565b6115578383836117bd565b505050565b505050565b61156b83836118d1565b61157860008484846115bc565b6115b7576040517f08c379a00000000000000000000000000000000000000000000000000000000081526004016115ae90612688565b60405180910390fd5b505050565b60006115dd8473ffffffffffffffffffffffffffffffffffffffff16611aab565b15611746578373ffffffffffffffffffffffffffffffffffffffff1663150b7a02611606610e7d565b8786866040518563ffffffff1660e01b815260040161162894939291906125df565b602060405180830381600087803b15801561164257600080fd5b505af192505050801561167357506040513d601f19601f8201168201806040525081019061167091906121f7565b60015b6116f6573d80600081146116a3576040519150601f19603f3d011682016040523d82523d6000602084013e6116a8565b606091505b506000815114156116ee576040517f08c379a00000000000000000000000000000000000000000000000000000000081526004016116e590612688565b60405180910390fd5b805181602001fd5b63150b7a0260e01b7bffffffffffffffffffffffffffffffffffffffffffffffffffffffff1916817bffffffffffffffffffffffffffffffffffffffffffffffffffffffff19161491505061174b565b600190505b949350505050565b60007f01ffc9a7000000000000000000000000000000000000000000000000000000007bffffffffffffffffffffffffffffffffffffffffffffffffffffffff1916827bffffffffffffffffffffffffffffffffffffffffffffffffffffffff1916149050919050565b6117c8838383611ace565b600073ffffffffffffffffffffffffffffffffffffffff168373ffffffffffffffffffffffffffffffffffffffff16141561180b5761180681611ad3565b61184a565b8173ffffffffffffffffffffffffffffffffffffffff168373ffffffffffffffffffffffffffffffffffffffff1614611849576118488382611b1c565b5b5b600073ffffffffffffffffffffffffffffffffffffffff168273ffffffffffffffffffffffffffffffffffffffff16141561188d5761188881611c89565b6118cc565b8273ffffffffffffffffffffffffffffffffffffffff168273ffffffffffffffffffffffffffffffffffffffff16146118cb576118ca8282611dcc565b5b5b505050565b600073ffffffffffffffffffffffffffffffffffffffff168273ffffffffffffffffffffffffffffffffffffffff161415611941576040517f08c379a0000000000000000000000000000000000000000000000000000000008152600401611938906127c8565b60405180910390fd5b61194a81610e11565b1561198a576040517f08c379a0000000000000000000000000000000000000000000000000000000008152600401611981906126c8565b60405180910390fd5b6119966000838361154c565b6001600360008473ffffffffffffffffffffffffffffffffffffffff1673ffffffffffffffffffffffffffffffffffffffff16815260200190815260200160002060008282546119e6919061296d565b92505081905550816002600083815260200190815260200160002060006101000a81548173ffffffffffffffffffffffffffffffffffffffff021916908373ffffffffffffffffffffffffffffffffffffffff160217905550808273ffffffffffffffffffffffffffffffffffffffff16600073ffffffffffffffffffffffffffffffffffffffff167fddf252ad1be2c89b69c2b068fc378daa952ba7f163c4a11628f55a4df523b3ef60405160405180910390a4611aa76000838361155c565b5050565b6000808273ffffffffffffffffffffffffffffffffffffffff163b119050919050565b505050565b6008805490506009600083815260200190815260200160002081905550600881908060018154018082558091505060019003906000526020600020016000909190919091505550565b60006001611b2984610a54565b611b3391906129c3565b9050600060076000848152602001908152602001600020549050818114611c18576000600660008673ffffffffffffffffffffffffffffffffffffffff1673ffffffffffffffffffffffffffffffffffffffff168152602001908152602001600020600084815260200190815260200160002054905080600660008773ffffffffffffffffffffffffffffffffffffffff1673ffffffffffffffffffffffffffffffffffffffff168152602001908152602001600020600084815260200190815260200160002081905550816007600083815260200190815260200160002081905550505b6007600084815260200190815260200160002060009055600660008573ffffffffffffffffffffffffffffffffffffffff1673ffffffffffffffffffffffffffffffffffffffff16815260200190815260200160002060008381526020019081526020016000206000905550505050565b60006001600880549050611c9d91906129c3565b9050600060096000848152602001908152602001600020549050600060088381548110611cf3577f4e487b7100000000000000000000000000000000000000000000000000000000600052603260045260246000fd5b906000526020600020015490508060088381548110611d3b577f4e487b7100000000000000000000000000000000000000000000000000000000600052603260045260246000fd5b906000526020600020018190555081600960008381526020019081526020016000208190555060096000858152602001908152602001600020600090556008805480611db0577f4e487b7100000000000000000000000000000000000000000000000000000000600052603160045260246000fd5b6001900381819060005260206000200160009055905550505050565b6000611dd783610a54565b905081600660008573ffffffffffffffffffffffffffffffffffffffff1673ffffffffffffffffffffffffffffffffffffffff168152602001908152602001600020600083815260200190815260200160002081905550806007600084815260200190815260200160002081905550505050565b828054611e5790612aad565b90600052602060002090601f016020900481019282611e795760008555611ec0565b82601f10611e9257805160ff1916838001178555611ec0565b82800160010185558215611ec0579182015b82811115611ebf578251825591602001919060010190611ea4565b5b509050611ecd9190611ed1565b5090565b5b80821115611eea576000816000905550600101611ed2565b5090565b6000611f01611efc846128c8565b6128a3565b905082815260208101848484011115611f1957600080fd5b611f24848285612a6b565b509392505050565b6000611f3f611f3a846128f9565b6128a3565b905082815260208101848484011115611f5757600080fd5b611f62848285612a6b565b509392505050565b600081359050611f7981613055565b92915050565b600081359050611f8e8161306c565b92915050565b600081359050611fa381613083565b92915050565b600081519050611fb881613083565b92915050565b600082601f830112611fcf57600080fd5b8135611fdf848260208601611eee565b91505092915050565b600082601f830112611ff957600080fd5b8135612009848260208601611f2c565b91505092915050565b6000813590506120218161309a565b92915050565b60006020828403121561203957600080fd5b600061204784828501611f6a565b91505092915050565b6000806040838503121561206357600080fd5b600061207185828601611f6a565b925050602061208285828601611f6a565b9150509250929050565b6000806000606084860312156120a157600080fd5b60006120af86828701611f6a565b93505060206120c086828701611f6a565b92505060406120d186828701612012565b9150509250925092565b600080600080608085870312156120f157600080fd5b60006120ff87828801611f6a565b945050602061211087828801611f6a565b935050604061212187828801612012565b925050606085013567ffffffffffffffff81111561213e57600080fd5b61214a87828801611fbe565b91505092959194509250565b6000806040838503121561216957600080fd5b600061217785828601611f6a565b925050602061218885828601611f7f565b9150509250929050565b600080604083850312156121a557600080fd5b60006121b385828601611f6a565b92505060206121c485828601612012565b9150509250929050565b6000602082840312156121e057600080fd5b60006121ee84828501611f94565b91505092915050565b60006020828403121561220957600080fd5b600061221784828501611fa9565b91505092915050565b60006020828403121561223257600080fd5b600082013567ffffffffffffffff81111561224c57600080fd5b61225884828501611fe8565b91505092915050565b60006020828403121561227357600080fd5b600061228184828501612012565b91505092915050565b612293816129f7565b82525050565b6122a281612a09565b82525050565b60006122b38261292a565b6122bd8185612940565b93506122cd818560208601612a7a565b6122d681612b9d565b840191505092915050565b60006122ec82612935565b6122f68185612951565b9350612306818560208601612a7a565b61230f81612b9d565b840191505092915050565b600061232582612935565b61232f8185612962565b935061233f818560208601612a7a565b80840191505092915050565b6000612358602b83612951565b915061236382612bae565b604082019050919050565b600061237b603283612951565b915061238682612bfd565b604082019050919050565b600061239e602583612951565b91506123a982612c4c565b604082019050919050565b60006123c1601c83612951565b91506123cc82612c9b565b602082019050919050565b60006123e4602483612951565b91506123ef82612cc4565b604082019050919050565b6000612407601983612951565b915061241282612d13565b602082019050919050565b600061242a602c83612951565b915061243582612d3c565b604082019050919050565b600061244d601e83612951565b915061245882612d8b565b602082019050919050565b6000612470603883612951565b915061247b82612db4565b604082019050919050565b6000612493602a83612951565b915061249e82612e03565b604082019050919050565b60006124b6602983612951565b91506124c182612e52565b604082019050919050565b60006124d9602083612951565b91506124e482612ea1565b602082019050919050565b60006124fc602c83612951565b915061250782612eca565b604082019050919050565b600061251f602f83612951565b915061252a82612f19565b604082019050919050565b6000612542602183612951565b915061254d82612f68565b604082019050919050565b6000612565603183612951565b915061257082612fb7565b604082019050919050565b6000612588602c83612951565b915061259382613006565b604082019050919050565b6125a781612a61565b82525050565b60006125b9828461231a565b915081905092915050565b60006020820190506125d9600083018461228a565b92915050565b60006080820190506125f4600083018761228a565b612601602083018661228a565b61260e604083018561259e565b818103606083015261262081846122a8565b905095945050505050565b60006020820190506126406000830184612299565b92915050565b6000602082019050818103600083015261266081846122e1565b905092915050565b600060208201905081810360008301526126818161234b565b9050919050565b600060208201905081810360008301526126a18161236e565b9050919050565b600060208201905081810360008301526126c181612391565b9050919050565b600060208201905081810360008301526126e1816123b4565b9050919050565b60006020820190508181036000830152612701816123d7565b9050919050565b60006020820190508181036000830152612721816123fa565b9050919050565b600060208201905081810360008301526127418161241d565b9050919050565b6000602082019050818103600083015261276181612440565b9050919050565b6000602082019050818103600083015261278181612463565b9050919050565b600060208201905081810360008301526127a181612486565b9050919050565b600060208201905081810360008301526127c1816124a9565b9050919050565b600060208201905081810360008301526127e1816124cc565b9050919050565b60006020820190508181036000830152612801816124ef565b9050919050565b6000602082019050818103600083015261282181612512565b9050919050565b6000602082019050818103600083015261284181612535565b9050919050565b6000602082019050818103600083015261286181612558565b9050919050565b600060208201905081810360008301526128818161257b565b9050919050565b600060208201905061289d600083018461259e565b92915050565b60006128ad6128be565b90506128b98282612adf565b919050565b6000604051905090565b600067ffffffffffffffff8211156128e3576128e2612b6e565b5b6128ec82612b9d565b9050602081019050919050565b600067ffffffffffffffff82111561291457612913612b6e565b5b61291d82612b9d565b9050602081019050919050565b600081519050919050565b600081519050919050565b600082825260208201905092915050565b600082825260208201905092915050565b600081905092915050565b600061297882612a61565b915061298383612a61565b9250827fffffffffffffffffffffffffffffffffffffffffffffffffffffffffffffffff038211156129b8576129b7612b10565b5b828201905092915050565b60006129ce82612a61565b91506129d983612a61565b9250828210156129ec576129eb612b10565b5b828203905092915050565b6000612a0282612a41565b9050919050565b60008115159050919050565b60007fffffffff0000000000000000000000000000000000000000000000000000000082169050919050565b600073ffffffffffffffffffffffffffffffffffffffff82169050919050565b6000819050919050565b82818337600083830152505050565b60005b83811015612a98578082015181840152602081019050612a7d565b83811115612aa7576000848401525b50505050565b60006002820490506001821680612ac557607f821691505b60208210811415612ad957612ad8612b3f565b5b50919050565b612ae882612b9d565b810181811067ffffffffffffffff82111715612b0757612b06612b6e565b5b80604052505050565b7f4e487b7100000000000000000000000000000000000000000000000000000000600052601160045260246000fd5b7f4e487b7100000000000000000000000000000000000000000000000000000000600052602260045260246000fd5b7f4e487b7100000000000000000000000000000000000000000000000000000000600052604160045260246000fd5b6000601f19601f8301169050919050565b7f455243373231456e756d657261626c653a206f776e657220696e646578206f7560008201527f74206f6620626f756e6473000000000000000000000000000000000000000000602082015250565b7f4552433732313a207472616e7366657220746f206e6f6e20455243373231526560008201527f63656976657220696d706c656d656e7465720000000000000000000000000000602082015250565b7f4552433732313a207472616e736665722066726f6d20696e636f72726563742060008201527f6f776e6572000000000000000000000000000000000000000000000000000000602082015250565b7f4552433732313a20746f6b656e20616c7265616479206d696e74656400000000600082015250565b7f4552433732313a207472616e7366657220746f20746865207a65726f2061646460008201527f7265737300000000000000000000000000000000000000000000000000000000602082015250565b7f4552433732313a20617070726f766520746f2063616c6c657200000000000000600082015250565b7f4552433732313a206f70657261746f7220717565727920666f72206e6f6e657860008201527f697374656e7420746f6b656e0000000000000000000000000000000000000000602082015250565b7f54686520746f6b656e205552492073686f756c6420626520756e697175650000600082015250565b7f4552433732313a20617070726f76652063616c6c6572206973206e6f74206f7760008201527f6e6572206e6f7220617070726f76656420666f7220616c6c0000000000000000602082015250565b7f4552433732313a2062616c616e636520717565727920666f7220746865207a6560008201527f726f206164647265737300000000000000000000000000000000000000000000602082015250565b7f4552433732313a206f776e657220717565727920666f72206e6f6e657869737460008201527f656e7420746f6b656e0000000000000000000000000000000000000000000000602082015250565b7f4552433732313a206d696e7420746f20746865207a65726f2061646472657373600082015250565b7f4552433732313a20617070726f76656420717565727920666f72206e6f6e657860008201527f697374656e7420746f6b656e0000000000000000000000000000000000000000602082015250565b7f4552433732314d657461646174613a2055524920717565727920666f72206e6f60008201527f6e6578697374656e7420746f6b656e0000000000000000000000000000000000602082015250565b7f4552433732313a20617070726f76616c20746f2063757272656e74206f776e6560008201527f7200000000000000000000000000000000000000000000000000000000000000602082015250565b7f4552433732313a207472616e736665722063616c6c6572206973206e6f74206f60008201527f776e6572206e6f7220617070726f766564000000000000000000000000000000602082015250565b7f455243373231456e756d657261626c653a20676c6f62616c20696e646578206f60008201527f7574206f6620626f756e64730000000000000000000000000000000000000000602082015250565b61305e816129f7565b811461306957600080fd5b50565b61307581612a09565b811461308057600080fd5b50565b61308c81612a15565b811461309757600080fd5b50565b6130a381612a61565b81146130ae57600080fd5b5056fea2646970667358221220ec16bf3a4796a6895a057b87f455949fc9219d23812766dc885af144030f68d364736f6c63430008040033",
  "devdoc": {
    "kind": "dev",
    "methods": {
      "approve(address,uint256)": {
        "details": "See {IERC721-approve}."
      },
      "balanceOf(address)": {
        "details": "See {IERC721-balanceOf}."
      },
      "getApproved(uint256)": {
        "details": "See {IERC721-getApproved}."
      },
      "isApprovedForAll(address,address)": {
        "details": "See {IERC721-isApprovedForAll}."
      },
      "name()": {
        "details": "See {IERC721Metadata-name}."
      },
      "ownerOf(uint256)": {
        "details": "See {IERC721-ownerOf}."
      },
      "safeTransferFrom(address,address,uint256)": {
        "details": "See {IERC721-safeTransferFrom}."
      },
      "safeTransferFrom(address,address,uint256,bytes)": {
        "details": "See {IERC721-safeTransferFrom}."
      },
      "setApprovalForAll(address,bool)": {
        "details": "See {IERC721-setApprovalForAll}."
      },
      "symbol()": {
        "details": "See {IERC721Metadata-symbol}."
      },
      "tokenByIndex(uint256)": {
        "details": "See {IERC721Enumerable-tokenByIndex}."
      },
      "tokenOfOwnerByIndex(address,uint256)": {
        "details": "See {IERC721Enumerable-tokenOfOwnerByIndex}."
      },
      "tokenURI(uint256)": {
        "details": "See {IERC721Metadata-tokenURI}."
      },
      "totalSupply()": {
        "details": "See {IERC721Enumerable-totalSupply}."
      },
      "transferFrom(address,address,uint256)": {
        "details": "See {IERC721-transferFrom}."
      }
    },
    "version": 1
  },
  "userdoc": {
    "kind": "user",
    "methods": {},
    "version": 1
  },
  "storageLayout": {
    "storage": [
      {
        "astId": 25,
        "contract": "contracts/MyNftCollection.sol:MyNftCollection",
        "label": "_name",
        "offset": 0,
        "slot": "0",
        "type": "t_string_storage"
      },
      {
        "astId": 27,
        "contract": "contracts/MyNftCollection.sol:MyNftCollection",
        "label": "_symbol",
        "offset": 0,
        "slot": "1",
        "type": "t_string_storage"
      },
      {
        "astId": 31,
        "contract": "contracts/MyNftCollection.sol:MyNftCollection",
        "label": "_owners",
        "offset": 0,
        "slot": "2",
        "type": "t_mapping(t_uint256,t_address)"
      },
      {
        "astId": 35,
        "contract": "contracts/MyNftCollection.sol:MyNftCollection",
        "label": "_balances",
        "offset": 0,
        "slot": "3",
        "type": "t_mapping(t_address,t_uint256)"
      },
      {
        "astId": 39,
        "contract": "contracts/MyNftCollection.sol:MyNftCollection",
        "label": "_tokenApprovals",
        "offset": 0,
        "slot": "4",
        "type": "t_mapping(t_uint256,t_address)"
      },
      {
        "astId": 45,
        "contract": "contracts/MyNftCollection.sol:MyNftCollection",
        "label": "_operatorApprovals",
        "offset": 0,
        "slot": "5",
        "type": "t_mapping(t_address,t_mapping(t_address,t_bool))"
      },
      {
        "astId": 1014,
        "contract": "contracts/MyNftCollection.sol:MyNftCollection",
        "label": "_ownedTokens",
        "offset": 0,
        "slot": "6",
        "type": "t_mapping(t_address,t_mapping(t_uint256,t_uint256))"
      },
      {
        "astId": 1018,
        "contract": "contracts/MyNftCollection.sol:MyNftCollection",
        "label": "_ownedTokensIndex",
        "offset": 0,
        "slot": "7",
        "type": "t_mapping(t_uint256,t_uint256)"
      },
      {
        "astId": 1021,
        "contract": "contracts/MyNftCollection.sol:MyNftCollection",
        "label": "_allTokens",
        "offset": 0,
        "slot": "8",
        "type": "t_array(t_uint256)dyn_storage"
      },
      {
        "astId": 1025,
        "contract": "contracts/MyNftCollection.sol:MyNftCollection",
        "label": "_allTokensIndex",
        "offset": 0,
        "slot": "9",
        "type": "t_mapping(t_uint256,t_uint256)"
      },
      {
        "astId": 1962,
        "contract": "contracts/MyNftCollection.sol:MyNftCollection",
        "label": "tokenURIs",
        "offset": 0,
        "slot": "10",
        "type": "t_array(t_string_storage)dyn_storage"
      },
      {
        "astId": 1966,
        "contract": "contracts/MyNftCollection.sol:MyNftCollection",
        "label": "_tokenURIExists",
        "offset": 0,
        "slot": "11",
        "type": "t_mapping(t_string_memory_ptr,t_bool)"
      },
      {
        "astId": 1970,
        "contract": "contracts/MyNftCollection.sol:MyNftCollection",
        "label": "_tokenIdToTokenURI",
        "offset": 0,
        "slot": "12",
        "type": "t_mapping(t_uint256,t_string_storage)"
      }
    ],
    "types": {
      "t_address": {
        "encoding": "inplace",
        "label": "address",
        "numberOfBytes": "20"
      },
      "t_array(t_string_storage)dyn_storage": {
        "base": "t_string_storage",
        "encoding": "dynamic_array",
        "label": "string[]",
        "numberOfBytes": "32"
      },
      "t_array(t_uint256)dyn_storage": {
        "base": "t_uint256",
        "encoding": "dynamic_array",
        "label": "uint256[]",
        "numberOfBytes": "32"
      },
      "t_bool": {
        "encoding": "inplace",
        "label": "bool",
        "numberOfBytes": "1"
      },
      "t_mapping(t_address,t_bool)": {
        "encoding": "mapping",
        "key": "t_address",
        "label": "mapping(address => bool)",
        "numberOfBytes": "32",
        "value": "t_bool"
      },
      "t_mapping(t_address,t_mapping(t_address,t_bool))": {
        "encoding": "mapping",
        "key": "t_address",
        "label": "mapping(address => mapping(address => bool))",
        "numberOfBytes": "32",
        "value": "t_mapping(t_address,t_bool)"
      },
      "t_mapping(t_address,t_mapping(t_uint256,t_uint256))": {
        "encoding": "mapping",
        "key": "t_address",
        "label": "mapping(address => mapping(uint256 => uint256))",
        "numberOfBytes": "32",
        "value": "t_mapping(t_uint256,t_uint256)"
      },
      "t_mapping(t_address,t_uint256)": {
        "encoding": "mapping",
        "key": "t_address",
        "label": "mapping(address => uint256)",
        "numberOfBytes": "32",
        "value": "t_uint256"
      },
      "t_mapping(t_string_memory_ptr,t_bool)": {
        "encoding": "mapping",
        "key": "t_string_memory_ptr",
        "label": "mapping(string => bool)",
        "numberOfBytes": "32",
        "value": "t_bool"
      },
      "t_mapping(t_uint256,t_address)": {
        "encoding": "mapping",
        "key": "t_uint256",
        "label": "mapping(uint256 => address)",
        "numberOfBytes": "32",
        "value": "t_address"
      },
      "t_mapping(t_uint256,t_string_storage)": {
        "encoding": "mapping",
        "key": "t_uint256",
        "label": "mapping(uint256 => string)",
        "numberOfBytes": "32",
        "value": "t_string_storage"
      },
      "t_mapping(t_uint256,t_uint256)": {
        "encoding": "mapping",
        "key": "t_uint256",
        "label": "mapping(uint256 => uint256)",
        "numberOfBytes": "32",
        "value": "t_uint256"
      },
      "t_string_memory_ptr": {
        "encoding": "bytes",
        "label": "string",
        "numberOfBytes": "32"
      },
      "t_string_storage": {
        "encoding": "bytes",
        "label": "string",
        "numberOfBytes": "32"
      },
      "t_uint256": {
        "encoding": "inplace",
        "label": "uint256",
        "numberOfBytes": "32"
      }
    }
  }
}